:100000000C945D000C9485000C9485000C94850084
:100010000C9485000C9485000C9485000C9485004C
:100020000C9485000C9485000C9485000C9485003C
:100030000C9485000C9485000C9485000C9485002C
:100040000C94DD020C9485000C9485000C948500C2
:100050000C9485000C9485000C9485000C9485000C
:100060000C9485000C94850000000008000201003B
:100070000003040700000000000000000000000072
:10008000250028002B0000000000240027002A0083
:10009000040404040404040402020202020203032E
:1000A0000303030301020408102040800102040836
:1000B00010200102040810209F0411241FBECFEF5E
:1000C000D8E0DEBFCDBF11E0A0E0B1E0E2E4FAE0AD
:1000D00002C005900D92AC30B107D9F721E0ACE039
:1000E000B1E001C01D92AD32B207E1F710E0CDE5FD
:1000F000D0E004C02197FE010E941405CC35D10741
:10010000C9F70E9427030C941F050C94000090E08F
:10011000FC01EC55FF4F2491FC01E057FF4F849107
:10012000882399F090E0880F991FFC01EA57FF4F50
:10013000A591B491FC01E458FF4F859194918FB73C
:10014000F894EC91E22BEC938FBF089590E0FC01C2
:10015000E859FF4F2491FC01EC55FF4F3491FC010D
:10016000E057FF4FE491EE2309F43CC0222339F11C
:10017000233091F038F42130A9F0223001F584B514
:100180008F7D12C0273091F02830A1F02430B9F4CF
:10019000809180008F7D03C0809180008F77809355
:1001A00080000DC084B58F7784BD09C08091B000F8
:1001B0008F7703C08091B0008F7D8093B000F0E016
:1001C000EE0FFF1FE458FF4FA591B4919FB7F8942D
:1001D000611104C08C913095382302C0EC913E2B04
:1001E0003C939FBF08953FB7F8948091110190917F
:1001F0001201A0911301B091140126B5A89B05C06E
:100200002F3F19F00196A11DB11D3FBFBA2FA92F95
:10021000982F8827820F911DA11DB11DBC01CD0112
:1002200042E0660F771F881F991F4A95D1F70895FE
:10023000CF92DF92EF92FF920F931F93CF93DF93B2
:100240006C017A018B01C0E0D0E0CE15DF0581F0B2
:10025000D8016D918D01D601ED91FC910190F08155
:10026000E02DC6010995892B11F02196EECF7E0174
:10027000C701DF91CF911F910F91FF90EF90DF9019
:10028000CF900895CF93DF93EC0160E08E810E94C0
:10029000A60061E08E810E94A60060E08E810E942F
:1002A000A6008BE891E00197F1F7DF91CF910895D7
:1002B000CF92DF92EF92FF920F931F93CF93DF9332
:1002C0006C017C0187E0E80EF11CC0E0D0E0062F55
:1002D00010E0B8010C2E02C0759567950A94E2F7FC
:1002E0006170F70181917F010E94A6002196C430C0
:1002F000D10579F7C601DF91CF911F910F91FF9042
:10030000EF90DF90CF900C944201CF92DF92EF926A
:10031000FF920F931F93CF93DF93EC01F62E642F80
:100320008C810E94A6008D818F3F19F060E00E94B1
:10033000A6008F850F2D10E084FF25C06E0187E099
:10034000C80ED11CE12CF12CB8010E2C02C0759501
:1003500067950A94E2F76170F60181916F010E943E
:10036000A600FFEFEF1AFF0A88E0E816F10461F734
:10037000CE01DF91CF911F910F91FF90EF90DF9011
:10038000CF900C944201B80184E0759567958A95E9
:10039000E1F7CE010E9458016F2DCE01DF91CF9180
:1003A0001F910F91FF90EF90DF90CF900C94580128
:1003B00040E0682F85E191E00C948501CF93DF93B5
:1003C000823028F0909124019860909324018093CA
:1003D00028011092290180E480932A0180E1809312
:1003E0002B0180E580932C01809119010E948700E8
:1003F00080911A018F3F11F00E94870080911B01AC
:100400000E948700C5E1D1E09E01255131408091D5
:10041000240184FD03C084E090E002C088E090E005
:1004200021962817390724F48E810E948700ECCF8B
:100430008BE39DE00197F1F760E0809119010E9444
:10044000A60060E080911B010E94A60080911A0125
:100450008F3F19F060E00E94A6008091240184FD86
:1004600020C063E085E191E00E945801CBE4D6E42E
:10047000CE010197F1F763E085E191E00E94580118
:100480002197F1F763E085E191E00E94580183E54F
:1004900092E00197F1F762E085E191E00E94580156
:1004A00015C080620E94D8018BE496E40197F1F7B1
:1004B0008091240180620E94D80183E592E0019737
:1004C000F1F78091240180620E94D801809124017B
:1004D00080620E94D80184E0809325018CE00E9414
:1004E000D80181E00E94D8018BE39FE10197F1F7E9
:1004F00082E08093260186E0DF91CF910C94D801B1
:1005000041E00E94850181E090E00895089580E037
:1005100090E008958F929F92AF92BF920F931F9396
:10052000CF93DF93CDB7DEB7A1970FB6F894DEBFB8
:100530000FBECDBF19A2423008F44AE08E010F5D14
:100540001F4F842E912CA12CB12CA50194010E9447
:10055000DC04E62FB901CA0101501109EA3014F494
:10056000E05D01C0E95CD801EC93232B242B252B03
:1005700061F70115110571F0F80101900020E9F70C
:100580003197AF01401B510BB80185E191E00E940A
:10059000180102C080E090E0A1960FB6F894DEBF8B
:1005A0000FBECDBFDF91CF911F910F91BF90AF9044
:1005B0009F908F9008950E941A051F920F920FB678
:1005C0000F9211242F933F938F939F93AF93BF93D9
:1005D00080910D0190910E01A0910F01B091100139
:1005E00030910C0123E0230F2D3720F40196A11D3B
:1005F000B11D05C026E8230F0296A11DB11D209351
:100600000C0180930D0190930E01A0930F01B09304
:1006100010018091110190911201A0911301B091EC
:1006200014010196A11DB11D809311019093120137
:10063000A0931301B0931401BF91AF919F918F913B
:100640003F912F910F900FBE0F901F9018957894A7
:1006500084B5826084BD84B5816084BD85B58260C7
:1006600085BD85B5816085BD80916E008160809378
:100670006E001092810080918100826080938100E1
:1006800080918100816080938100809180008160F1
:10069000809380008091B10084608093B10080914C
:1006A000B00081608093B00080917A008460809374
:1006B0007A0080917A00826080937A0080917A003B
:1006C000816080937A0080917A00806880937A00BC
:1006D0001092C10082E00E94DE0180E00E9487004B
:1006E00081E00E94870082E00E94870083E00E94F0
:1006F000870084E00E94870085E00E94870086E0F2
:100700000E94870087E00E94870044244A9493E077
:10071000592E612C712C2BE3222E2FE1322E00E07A
:1007200010E020E420937C0080917A008064809324
:100730007A0080917A0086FDFCCFC091780080918C
:100740007900D0E0D82B2FEF30E0DE010E940D05BC
:10075000A30192010E94BD0469017A01E091280180
:10076000E23010F4E15001C0E1E0F0E0EB5EFE4F5A
:10077000848980680E94D801F7FE0FC041E06DE2D5
:1007800085E191E00E94850166277727CB016C19EE
:100790007D098E099F094AE003C04AE0C701B601FE
:1007A0000E948A020E94F3004B015C0184E6C82E7D
:1007B000D12CE12CF12C0E94F300DC01CB01881933
:1007C0009909AA09BB09883E9340A105B10598F390
:1007D00081E0C81AD108E108F10828EE820E23E072
:1007E000921EA11CB11CC114D104E104F10419F73B
:1007F00081E00E94D801C1010197F1F72097E9F447
:1008000060E081E00E94A60060E082E00E94A60015
:1008100060E083E00E94A60060E084E00E94A60001
:1008200060E085E00E94A60060E086E00E94A600ED
:1008300060E087E00E94A6006BC01C161D060CF04D
:1008400067C061E087E00E94A600C132D1050CF4C8
:100850005FC061E086E00E94A600C134D1050CF4BF
:1008600057C061E085E00E94A600C136D1050CF4B6
:100870004FC061E084E00E94A600C138D1050CF4AD
:1008800047C061E083E00E94A600C13AD1050CF4A4
:100890003FC061E082E00E94A600C13CD105C4F1E6
:1008A00061E081E00E94A600C13ED1058CF161E0CB
:1008B00080E00E94A60060E085E00E94A600C036AD
:1008C000D105C4F1C038D1052CF460E083E00E946A
:1008D000A60003C0C03AD1052CF460E082E00E947B
:1008E000A60003C0C03CD1052CF460E081E00E946A
:1008F000A60003C0C03ED10524F460E080E00E9461
:10090000A6000115110509F40CCF0E94000009CFC3
:10091000D7FF05C060E087E00E94A60003C0C03298
:10092000D1052CF460E086E00E94A60003C0C1342B
:10093000D1050CF660E084E00E94A600C6CFE5E198
:10094000F1E01382128284E091E0918380838DE054
:1009500084838FEF85838CE086838BE087838AE0B6
:10096000808789E0818788E08287138614861586D0
:100970001686178681E00C94DE01052E97FB1EF487
:1009800000940E94D40457FD07D00E94DC0407FCA9
:1009900003D04EF40C94D404509540953095219595
:1009A0003F4F4F4F5F4F089590958095709561959B
:1009B0007F4F8F4F9F4F0895A1E21A2EAA1BBB1B9A
:1009C000FD010DC0AA1FBB1FEE1FFF1FA217B3071B
:1009D000E407F50720F0A21BB30BE40BF50B661F31
:1009E000771F881F991F1A9469F7609570958095F5
:1009F00090959B01AC01BD01CF010895A29FB0016C
:100A0000B39FC001A39F700D811D1124911DB29F42
:100A1000700D811D1124911D08950E94FE04B7FFE1
:100A20000895821B930B0895EE0FFF1F0590F4911C
:100A3000E02D099481E090E0F8940C941F05F8945F
:020A4000FFCFE6
:0C0A4200000000008002180187028602FC
:107E0000112484B714BE81FFF0D085E080938100F7
:107E100082E08093C00088E18093C10086E0809377
:107E2000C20080E18093C4008EE0C9D0259A86E02C
:107E300020E33CEF91E0309385002093840096BBD3
:107E4000B09BFECF1D9AA8958150A9F7CC24DD24C4
:107E500088248394B5E0AB2EA1E19A2EF3E0BF2EE7
:107E6000A2D0813461F49FD0082FAFD0023811F036
:107E7000013811F484E001C083E08DD089C08234E0
:107E800011F484E103C0853419F485E0A6D080C0E4
:107E9000853579F488D0E82EFF2485D0082F10E0AE
:107EA000102F00270E291F29000F111F8ED06801E7
:107EB0006FC0863521F484E090D080E0DECF843638
:107EC00009F040C070D06FD0082F6DD080E0C81688
:107ED00080E7D80618F4F601B7BEE895C0E0D1E017
:107EE00062D089930C17E1F7F0E0CF16F0E7DF06D8
:107EF00018F0F601B7BEE89568D007B600FCFDCFD4
:107F0000A601A0E0B1E02C9130E011968C91119780
:107F100090E0982F8827822B932B1296FA010C0160
:107F200087BEE89511244E5F5F4FF1E0A038BF0790
:107F300051F7F601A7BEE89507B600FCFDCF97BE46
:107F4000E89526C08437B1F42ED02DD0F82E2BD052
:107F50003CD0F601EF2C8F010F5F1F4F84911BD097
:107F6000EA94F801C1F70894C11CD11CFA94CF0C13
:107F7000D11C0EC0853739F428D08EE10CD085E9AC
:107F80000AD08FE07ACF813511F488E018D01DD067
:107F900080E101D065CF982F8091C00085FFFCCF94
:107FA0009093C60008958091C00087FFFCCF809118
:107FB000C00084FD01C0A8958091C6000895E0E648
:107FC000F0E098E1908380830895EDDF803219F02E
:107FD00088E0F5DFFFCF84E1DECF1F93182FE3DFCA
:107FE0001150E9F7F2DF1F91089580E0E8DFEE27F6
:047FF000FF270994CA
:027FFE00040479
:0400000300007E007B
:00000001FF
